:02000002D0002C
:1040000000400D00486A0D00000006000D0005018B
:084010000401BD0B00000000DB
:04401800A4670D008C
:1040200009480A49884208B505D0094A824202D0A7
:10403000121A02F057FB0748074A0021121A02F031
:104040005FFB014808BD00BF68E50320B4690D00AF
:10405000D4E50320D4E50320F0E7032070B5074E34
:10406000074C01F045FEA41BA4080025A54200D181
:1040700070BD56F8043B98470135F7E78C690D0091
:10408000B0690D0000F023B808B500F079F8BDE87C
:10409000084001F0EFBD00F01BBE00F019BE00F0BB
:1040A0001FBE0078B0FA80F040097047012303700A
:1040B00070470EB403B503AB012153F8042B0193F1
:1040C00001F0A1FB02B05DF804EB03B0704708B546
:1040D00001F084FDBDE808404FF4165101F072BDB7
:1040E00010B5204B8CB0186802F034F80B461E490E
:1040F00002460868CDE9042302F02CF8CDE902015C
:104100001A49086802F026F8DDE90423CDE9000128
:10411000174908A801F026FC164B089A1B788DF861
:10412000003015493C2306A800F0EEFF079C7CB147
:104130006368013B63605BB9236820469B689847CE
:10414000A368013BA3601BB923682046DB6898473E
:1041500008A801F0A7FB01F041FD0849FFF7A9FFFE
:104160000CB010BDE0E50320DCE5032010E60320E1
:10417000B8670D00D8E50320E6670D00F1670D0074
:1041800010B50D4C00F0E0FB2368C01A4EF65F231B
:10419000984210D900F0D8FB2060084800F01AF9C6
:1041A00028B1064800F03CF9054B83ED000ABDE854
:1041B0001040FFF795BF10BD68E50320E4E503203C
:1041C00010E60320034B044801221A700F2100223D
:1041D00000F012B8D8E50320E4E503200023002214
:1041E000438242618361C3610362436280F8283085
:1041F00080F829304385704738B50446154600F0ED
:1042000011FA4FF47A732046A5732382FFF7E6FF75
:1042100038BD00002DE9F0410B6883614B68C36134
:104220000B78262B044600F1180560D008D8102B17
:104230000AD0222B59D0002084F82900BDE8F08153
:10424000282BF8D1022300E0012384F829302046EE
:1042500000F0F2F92946204600F0ACFAA27B442196
:10426000204600F07EFA208A00F06AFD204600F029
:10427000E3F92946204600F09DFA0022B8212046A5
:1042800000F06FFA00221146204600F06AFA20463C
:1042900000F0D2F92946204600F08CFA0022BE2117
:1042A000204600F05EFA94F82930042B04D1002255
:1042B0001146204600F055FA04F1200504F12907C3
:1042C0002E46204600F066FA05F8010BAF42F8D101
:1042D0000821304600F0FCFA94F82830834208D0D8
:1042E000012384F82B300020A8E70323ADE7042343
:1042F000ABE794F8210094F8203043EA002363826E
:1043000094F82930042B4DD194F8228007EE908A3E
:10431000F8EE677A40EA0823C508638217EE900A30
:1043200084F8215001F016FF07EE905AF8EE677AF4
:10433000064617EE900A0F4601F00CFF244B0022B0
:1043400001F060FF18F0800F02460B4625D0304682
:10435000394601F09FFD02F067F9606115E094F8BD
:104360002420B4F9123012F0600202D123F00703C6
:104370002CE0202A0BD0402A0CD0B4F9123007EEE2
:10438000903AFAEECE7AC4ED057A012056E723F092
:1043900003031BE023F0010318E032463B4601F023
:1043A0007BFDD8E7032BF0D8012BD8D8EDD1B4F999
:1043B000123094F82720DB00102A6382DDD194F8B4
:1043C000262023F00F03C2F10C0213446382D4E7CA
:1043D0000000A03F38B50446FFF700FF00F11805C4
:1043E000294600F001FA38B9012384F82A30204622
:1043F00000F0F2F9002038BD0721284600F068FAE5
:10440000E37F834203D0012384F82B30F2E729466F
:104410002046BDE83840FFF7FDBE00000000000068
:1044200008B5406901F096FE08A3D3E9002301F026
:10443000E9FE054B002201F02FFD02F0F5F800EE39
:10444000100A08BDAFF3008000004040CDCCCCCCBA
:10445000CCCCFC3F10B503682F2B044604D9074A87
:1044600000210A2000F080FB23681F2B83BF03F08C
:104470001F03034823604FF0A04010BD39490D00D1
:1044800000030050F7B51B4C058823781A4EBFF384
:104490005B8F13F0010F09D12046FFF702FE28B110
:1044A00000F06AFA30602046FFF700FE33682D0105
:1044B0005B5D5F012378BFF35B8FDB0709D40D4899
:1044C000FFF7EFFD28B100F057FA30600948FFF719
:1044D000EDFD33682B4401A85B7803F01F033B43D9
:1044E0000193FFF7B7FF019A01239340C0F80C3501
:1044F00003B0F0BD14E6032018E60320F7B51B4C0B
:10450000058823781A4EBFF35B8F13F0010F09D192
:104510002046FFF7C6FD28B100F02EFA3060204695
:10452000FFF7C4FD33682D015B5D5F012378BFF3A6
:104530005B8FDB0709D40D48FFF7B3FD28B100F00E
:104540001BFA30600948FFF7B1FD33682B4401A81E
:104550005B7803F01F033B430193FFF77BFF019A56
:1045600001239340C0F8083503B0F0BD14E60320E2
:1045700018E6032010B5044600F0B8FF2046FFF708
:10458000BDFF2088012100F0FFF9BDE8104000F0D8
:10459000AFBF00002DE9F341204D06882B78204F56
:1045A000BFF35B8F13F0010F09D12846FFF779FDA8
:1045B00028B100F0E1F938602846FFF777FD3B6845
:1045C00036019C5D2B78BFF35B8FDB074FEA441805
:1045D00009D41248FFF765FD28B100F0CDF9386025
:1045E0000E48FFF763FD3B68334401A85C7804F094
:1045F0001F0444EA08040194FFF72CFFD0F810359B
:10460000019401A8FFF726FF019BD0F81005D840C0
:1046100000F0010002B0BDE8F08100BF14E6032005
:1046200018E6032038B504460D462846002101F05F
:10463000CFFB2580204638BD70B5054600F056FFFB
:104640002888002100F0A0F900F052FF7D24013CF1
:1046500014F0FF042DD0022000F06EF92846FFF779
:1046600099FF0028F3D000F041FF2846FFF70AFF2A
:104670000121288800F088F900F03AFF4FF4F0702B
:1046800000F05AF900F068F900210646288800F089
:104690007BF9462000F050F92846FFF77BFFB0FA7F
:1046A00080F4304600F060F94FF4CD70640900F0FA
:1046B00043F9204670BD70B511F00105044618D0CD
:1046C00000F04AF905462046FFF7DCFE012120886C
:1046D00000F05AF9012000F02FF92088002100F0A5
:1046E00053F9284600F040F93B20BDE8704000F047
:1046F00023B900F031F906462046FFF7C3FE012139
:10470000208800F041F9412000F016F92088294660
:1047100000F03AF9304600F027F90520E5E738B512
:10472000044600F019F905462046FFF7ABFE208845
:10473000012100F029F9012000F0FEF80021208875
:1047400000F022F90D2000F0F7F82046FFF722FFD5
:104750000446284600F008F92E2000F0EDF8204627
:1047600038BDF7B50F46154608260124274214BF69
:104770000121002101906400FFF79DFF013E019897
:10478000E4B2F3D125B103B0BDE8F040FFF7F2BECB
:1047900003B0F0BDF8B507460826002501243846C9
:1047A000FFF7BDFF00B125436400013EE4B2F6D13E
:1047B0002846F8BD70B500220C4655210646FFF785
:1047C000D0FF651E073415F8011F00223046FFF7A1
:1047D000C8FFA542F7D170BD002343808380C3800A
:1047E00003814381037370472DE9F04790F80C90E3
:1047F00004468846B9F1000F0DD000206081207377
:10480000A31C08F1FF380A3413F8012B08F8012F14
:10481000A342F9D104E0FFF70FFF18B960812073BC
:10482000BDE8F0874A46F0212046FFF79AFF0126AF
:10483000CA4635462046FFF772FF07462046FFF777
:104840006EFF012F0FD1012827D1402DD5D984F833
:104850000A90B9F1000F01D101232373A378002B33
:10486000CBD00120CCE7874204EB0A030CD1A27A1B
:10487000AA420ED99A78164214BF0127002767B9B9
:10488000082D00D8E572A9469A7822EA06029A70A5
:1048900009E00CBF01270027F1E704EB0A0201271A
:1048A000937833439370394620467600FFF703FF31
:1048B00016F0FF0604BF0AF1010A5FFA8AFA05F151
:1048C000010508BF0126BAF1070FEDB2B2D9BCE766
:1048D00030B50246014400208A4213D012F8015B31
:1048E000082480EA050313F0010F4FEA50001CBFB3
:1048F00080F08C03D8B2631E13F0FF044FEA550515
:10490000EFD1E9E730BD000008B5024B1B685B6CD6
:10491000019308BD4802030008B5024B1B689B6C5D
:10492000019308BD4802030008B5024B1B685B6891
:10493000019308BD1802030008B5024B1B68DB6831
:10494000019308BD1802030008B5024B1B685B69A0
:10495000019308BD1802030008B5024B1B689B6B4E
:10496000019308BD1802030008B5024B1B68DB6BFE
:10497000019308BD1802030008B5024B1B681B68B1
:10498000019308BD2C02030008B5024B1B689B680D
:10499000019308BD2C02030008B5024B1B681B6A7B
:1049A000019308BD2C02030008B5024B1B685B6A2B
:1049B000019308BD2C02030008B5024B1B681B6A5B
:1049C000019308BD2802030008B5024B1B685B6A0F
:1049D000019308BD2802030008B5024B1B689B6ABF
:1049E000019308BD2802030008B5024B1B68DB6A6F
:1049F000019308BD2802030008B5024B1B681B6B1E
:104A0000019308BD2802030008B5024B1B685B6BCD
:104A1000019308BD2802030008B5024B1B681B6CFC
:104A2000019308BD2802030008B5024B1B685B69AF
:104A3000019308BD6402030008B5024B1B689B6824
:104A4000019308BD6802030008B5024B1B68DB68D0
:104A5000019308BD6802030008B5024B1B68DB69BF
:104A6000019308BD3002030008B5024B1B681B6AA6
:104A7000019308BD3002030008B5024B1B681B6898
:104A8000019308BD3C02030008B5024B1B68DB68BC
:104A9000019308BD3C02030008B5024B1B681B696B
:104AA000019308BD3C02030008B5024B1B685B691B
:104AB000019308BD3C02030008B5024B1B689B69CB
:104AC000019308BD3C02030008B5024B1B68DB697B
:104AD000019308BD3C02030008B5024B1B681B6A2A
:104AE000019308BD3C02030008B5024B1B689B6A9A
:104AF000019308BD3C02030008B5024B1B681B680C
:104B0000019308BD4C02030008B5024B1B685B68AB
:104B1000019308BD4C02030008B5024B1B681B69DA
:104B2000019308BD4C02030008B5024B1B685B698A
:104B3000019308BD4C02030008B5024B1B689B693A
:104B4000019308BD4C02030008B5024B1B68DB69EA
:104B5000019308BD4C02030008B5024B1B681B6A99
:104B6000019308BD4C02030008B5024B1B685B6B48
:104B7000019308BD6002030008B5024B1B685B6827
:104B8000019308BD2002030008B5024B1B685B6956
:104B9000019308BD2002030008B5024B1B68DB6CC3
:104BA000019308BD2002030008B5024B1B685B6D32
:104BB000019308BD2002030008B5034B1B68D3F81E
:104BC0008830019308BD00002002030008B5034BA4
:104BD0001B68D3F89430019308BD00002002030045
:104BE00008B5024B1B685B69019308BD44020300D2
:104BF00008B5024B1B681B6A019308BD4402030001
:104C000008B5024B1B68DB6B019308BD440203002F
:104C100008B5024B1B685B68019308BD40020300A6
:104C200008B5024B1B689B68019308BD4002030056
:104C300008B5024B1B68DB68019308BD4002030006
:104C400008B5024B1B681B69019308BD40020300B5
:104C500008B5024B1B685B69019308BD4002030065
:104C600008B5024B1B689B69019308BD4002030015
:104C700008B5024B1B68DB69019308BD40020300C5
:104C800008B5024B1B681B6A019308BD4002030074
:104C900008B5024B1B681B6B019308BD4002030063
:104CA00008B5024B1B685B6B019308BD4002030013
:104CB00008B5024B1B681B6C019308BD4002030042
:104CC00008B5024B1B685B6C019308BD40020300F2
:104CD00008B5024B1B681B68019308BD1C0203004A
:104CE00008B5024B1B685B68019308BD1C020300FA
:104CF00008B5024B1B689B68019308BD1C020300AA
:104D000008B5024B1B685B6A019308BD1C020300D7
:104D100008B5024B1B68DB6A019308BD1C02030047
:104D200008B5024B1B681B6B019308BD1C020300F6
:104D300008B5024B1B685B6C019308BD1C020300A5
:104D40000021FFF721BF10B5836804460BB901F0BD
:104D50009AF8C3689847A3681BB1032221462046EE
:104D6000984720461021BDE8104001F088B810B5E2
:104D7000036804469B689847A368013BA3602BB96E
:104D800023682046DB68BDE81040184710BD10B509
:104D90000446006808B1FFF7BFFD204610BD10B5FE
:104DA0008368044613B1032201469847204610BD8C
:104DB0000B68036013B15A6801325A60704710B52E
:104DC0000446006828B14368013B43600BB9FFF714
:104DD000CEFF204610BD13B50B460246D0E90001B8
:104DE0006C4684E8030093E8030082E8030094E83B
:104DF000030083E8030002B010BD000010B5064CAC
:104E0000002320462360FFF77FFD2046034A044924
:104E1000BDE8104001F02EB81CE60320D4E50320C5
:104E20008F4D0D00002240681146FFF709BF002298
:104E300040681146FFF724BF002240681146FFF783
:104E40002FBF40680022FFF723BF4068002281F097
:104E50000101FFF70DBF002340681A461946FFF70E
:104E6000FFBE002340681A461946FFF7F1BE002234
:104E700040681146FFF7D4BE406800220221FFF7C8
:104E8000D7BE002340681A46FFF7C2BE084B10B5D4
:104E9000282422461846002101F032FC054B0480EC
:104EA0004FF0FF32426004225A60034A1A6010BD7C
:104EB00028E6032020E6032004680D007047002048
:104EC000704710B51021044600F0D9FF204610BDF0
:104ED00008B5FFF7F6FF08BD30B500224FF69C7409
:104EE000026084808D888C800C68858004600A60F4
:104EF00030BD10B504460068FFF7F2FE204610BD35
:104F000038B5C468F4B12378022B03D104F10C0046
:104F1000FFF7EFFF656835B12846FFF740FF102126
:104F2000284600F0ACFFA56835B12846FFF737FFEB
:104F30001021284600F0A3FF20461421BDE8384088
:104F400000F09DBF38BD73B50E46044656F8043BCD
:104F500000930D4601A83146FFF72AFF019A009BF6
:104F60006260236001A8002301930093FFF727FFED
:104F70003046FFF724FF2846082100F080FF204636
:104F800002B070BD826810B50AB900F07CFFBDE8C0
:104F90001040C368184708B5006800F11001FFF71A
:104FA000F1FF08BD826810B50AB900F06CFFBDE8DA
:104FB0001040C368184708B5006800F11001FFF7FA
:104FC000F1FF08BD38B500230446036010200D46EC
:104FD000FFF761F828B10123C0E90133024B0360F8
:104FE000C5602060204638BD40680D0038B50023FC
:104FF00083608B6804460D462BB102229847EB680C
:10500000E360AB68A360204638BD0000F0B589B00E
:1050100004686846FFF760FF4FF00203D4E84F2FA3
:10502000002A03D1C4E8413F0029F7D125D104F17A
:105030000C0569462846FFF74FFFBFF35B8F01233E
:105040006370002004F10803BFF35B8F53E8006F27
:1050500043E80002002AF9D1BFF35B8F6EB1FFF77E
:105060009BFD78B129463046FFF78CFF3046FFF7AD
:1050700096FE1021304600F002FF6846FFF739FF28
:1050800009B0F0BD314602A8FFF7B0FFE068B4F9FF
:10509000105008B101F060FB06901020ADF81C50D4
:1050A000FEF7F9FF0546E8B1002787601820FEF7F4
:1050B000F2FF044688B10146876002A8FFF78BFE25
:1050C000049BA268A360059B049206A9E268E360C2
:1050D00004F110000592FFF7FFFE084BEB60084B50
:1050E0002C60AB6006A8FFF704FF02A8FFF757FE8D
:1050F000002229460348FFF757FDB7E7974F0D00F9
:105100002D520D00474D0D002DE9F0478AB00546A0
:105110009DF848900C4617469846FFF761FD07AE8C
:10512000824638BB4FF62E73059005A93046ADF880
:105130001830FFF7D1FE1420FEF7ADFF044648B14A
:10514000022303700123C0E901AA437031460C30E9
:10515000FFF7C2FE2846214640F8044BFFF732FF16
:105160003046FFF7C6FE05A8FFF7C3FE28460AB083
:10517000BDE8F0870C234FF0000A1420CDE908AAFF
:105180000793FEF788FF014628B1C0E901AA80F81D
:1051900000A080F801A004A80391FFF713FF224BA1
:1051A00008930820FEF777FF824628B1039B40F85A
:1051B000043B04A9FFF7FCFD00965FFA89F3424621
:1051C00039462046CDF824A0FFF712FDB8B9039B5D
:1051D0005B7803F0FF0293B94FF69C7305A903A80F
:1051E0000592ADF81830FFF711FF05A8FFF781FE13
:1051F00005A80999FFF7A7FE06A8FFF7E0FD039BA6
:10520000059304A906A8FFF7D3FD059B069A2B601A
:105210006A60002306A806930593FFF7D0FD04A853
:10522000FFF7CDFDA2E700BFF1520D00022AF8B54D
:10523000054607D0032A18D0012A01D10B68036064
:105240000020F8BD18200E68FEF725FF044650B177
:105250003146FFF7CBFE3069B6F9147008B101F0A2
:105260007BFA2061A7822C60EAE70468002CE7D073
:1052700004F11000FFF73DFE2046FFF790FD1821D6
:10528000204600F0FCFDDBE738B5002383608B6827
:1052900004460D462BB102229847EB68E360AB68E9
:1052A000A360204638BD022A70B5044607D0032A01
:1052B00012D0012A01D10B680360002070BD1420B8
:1052C0000E68FEF7E8FE054620B13146FFF7DCFF29
:1052D000337C2B742560F0E70468002CEDD0204669
:1052E000FFF75DFD1421204600F0C9FDE5E7000051
:1052F000F0B589B004460D4601A81146FFF723FE1C
:10530000A4B124B21DB1284601F026FA054601A831
:1053100003A90395ADF81040FFF778FE03A8FFF747
:10532000E8FD02A8FFF74BFD09B0F0BD019D012388
:10533000D5E84F2F002A03D1C5E8413F0029F7D116
:10534000EFD12B73BFF35B8F6B702B1DBFF35B8FA4
:1053500053E8006F43E80042002AF9D1BFF35B8FA6
:10536000002EDED02046FFF717FC074660B105F19E
:105370000C013046FFF716FE3046FFF710FD1021F6
:10538000304600F07CFDCCE7314603A8FFF77CFFF8
:105390002B7B8DF81C301020FEF77DFE0546D0B12A
:1053A00087601420FEF777FE044678B187600146D7
:1053B00003A8FFF710FD059BA268A360069B05925A
:1053C000E268E3609DF81C3006922374064BEB60A4
:1053D000064B2C60AB6003A8FFF7E1FC00222946D6
:1053E0000348FFF7E1FBC7E7B74F0D00A7520D00D9
:1053F000474D0D00002240681146FFF741BC0022D6
:1054000040681146FFF74CBC40680022FFF740BCE3
:105410004068002281F00101FFF72ABC00234068A8
:105420001A461946FFF71CBC002340681A46194665
:10543000FFF70EBC002240681146FFF701BC0022B6
:1054400040681146FFF7ECBB406800220221FFF7DD
:10545000EFBB002340681A46FFF7DABB024B03227A
:105460005A60024A1A60704750E603205C680D00DB
:105470007047F8B5064615460C468F18BC4206D054
:10548000336814F8011B9B6830469847F6E72846B6
:10549000F8BD007C0022FFF78FBA007C0021FFF7E7
:1054A00093BA007C0021FFF797BA007C0021FFF738
:1054B0009BBA007C0021FFF79FBA10B51421044667
:1054C00000F0DDFC204610BD10B54FF47A730446A1
:1054D00008460021C4E90113034B236020741146E0
:1054E000FFF79AFA204610BD98680D00FFF75CBAE6
:1054F000FFF752BA704710B51821044600F0BFFC00
:10550000204610BDF0B5037D062B8DB00E4600F190
:1055100004074FF0000412D000F1080515F8011D32
:105520000A22304600F051F9AF42044419D0002C51
:10553000F4D02E21304600F039F90444EEE72F2351
:105540006A4639460A208DF80040FFF76DFA684632
:1055500001F01FF933680246DB6869463046984718
:10556000044620460DB0F0BD10B5054B044611228F
:1055700040F8043B002101F0C3F8204610BD00BFF5
:10558000C0680D000346074A10B543F8042B01F12B
:10559000100251F8044B43F8044B9142F9D10A78B8
:1055A0001A7010BDC0680D0010B59DF8084044EA9F
:1055B000032343EA024242EA016104234160037586
:1055C00010BD000013B5054B0360CB7800938B78BA
:1055D0004A780978FFF7E8FF02B010BDC0680D00F7
:1055E000014B024A1A60704758E60320CC680D0050
:1055F000002340681A46FFF70BBB406800220221D7
:10560000FFF716BB002240681146FFF709BB0022D6
:1056100040681146FFF714BB002340681A4619463C
:10562000FFF716BB002340681A461946FFF718BB60
:1056300040680021FFF73CBB40680021FFF740BBFA
:105640004068002281F00101FFF712BB4068002290
:10565000FFF71EBB002240681146FFF721BB002266
:1056600040681146FFF70CBB2DE9F043002495B0CC
:1056700016460D460746FFF777FF214618220EA86B
:10568000009401F03DF84023CDE90C3421466B46EF
:105690000CAA3046FFF7D8F9044600284CD1024640
:1056A00001216868FFF7CCFA02218046224668682B
:1056B000FFF7C6FA009E81462146002E3CD0002905
:1056C0003AD17368022B03D00A2B11D0F669F4E7A4
:1056D000B8F1000F0AD0716906A8043107ADFFF7D1
:1056E00071FF0FCD3C1D0FC42B6823704146EDE7C1
:1056F000B9F1000F01D14946E8E77469102201A809
:1057000000F0FEFF06238DF8143001AD04F108030C
:105710001834186859682A4603C20833A34215464C
:10572000F7D101A906A807ADFFF72CFF0FCD3C1D4F
:105730000FC42B682370DEE70098FFF77DF9384629
:1057400015B0BDE8F0830000024B034A1A60002246
:105750005A6070475CE60320D8680D00F8B506462D
:105760000D468F180024BD420CD0336815F8011B7C
:105770009B6830469847031E01DB1C44F3E7002C6E
:1057800008BF1C462046F8BD13B50446084659B16B
:10579000019100F0FEFF23680199DB680246204674
:1057A00002B0BDE81040184702B010BD03689B6806
:1057B000184738B50D210546FFF7F8FF0A210446C2
:1057C0002846FFF7F3FF204438BD30B58BB00023E7
:1057D0008DF82430012A98BF0A2209AC0D46B1FB8E
:1057E000F2F101FB125303F0FF03092B94BF303396
:1057F0003733DBB2AA4204F8013DEFD92146FFF767
:10580000C3FF0BB030BD2DE9F04186B000AF0546B7
:105810000E46381D142114463B60FFF771FA132819
:105820000ED8391D2846FFF7AFFF04461EB12846A3
:10583000FFF7BFFF044420461837BD46BDE8F0819E
:1058400000F1080323F00703E846ADEB030D224601
:10585000411C3B686846FFF753FA69462846FFF744
:1058600093FF0446C546E1E710B50446FFF797FAF3
:10587000204610BD0348044A04490023836000F019
:10588000F9BA00BF64E60320D4E5032069580D008F
:1058900010B5044608462170FFF7DEF80023636068
:1058A000204610BD10B504460068FFF719FA2046DF
:1058B00010BD10B50446006808B1FFF711FA0023C7
:1058C000C4E90133236010BD38B504460D460068B5
:1058D0000131FFF70DFA10B1C4E90005012038BD10
:1058E00010B50368044623B143688B4201D30120FD
:1058F00010BD2046FFF7E8FF0028F9D0A368002B71
:10590000F5D122681370F2E737B50D4611460192C2
:105910000446FFF7E5FF019A28B92046FFF7C9FFC3
:10592000204603B030BDA2602946206800F0DAFEB0
:105930002268A3680021D154F2E7002313B5C0E91F
:10594000003304468360037341B10846019100F0BF
:1059500020FF019902462046FFF7D6FF204602B0FD
:1059600010BD00000EB470B587B00BAD044655F8FD
:10597000042B01922B46052104A80395FFF7C0F9DB
:105980000B4906462046FFF7D8FF31462046FFF771
:10599000A7FF206830B1019A03952B46711CFFF7D1
:1059A000AFF9A060204607B0BDE8704003B0704773
:1059B00027690D0010B50446006818B1FFF790F98B
:1059C0000023236010BD10B50446FFF7F3FF204607
:1059D00010BD000010B5094B094C022200201A60CE
:1059E000084B2060A080A071A360FFF7C5F8204697
:1059F000054A0649BDE8104000F03CBA80E60320A5
:105A000074E603200000FFFFD4E50320C7590D0012
:105A1000024B1A68024B1A60704700BF6CE5032006
:105A200084E6032070474174704708B5007CFFF797
:105A30005BF820EAE07008BD08B5007CFFF72CF8A1
:105A400020EAE07008BD08B5007CFFF735F840EAB1
:105A5000E07008BD08B5007CFFF726F840EAE0706A
:105A600008BD007CFFF730B837B5457C04462DB142
:105A7000207C03B0BDE83040FFF706B8007C019100
:105A8000FFF732F800280199F2DC284603B030BD58
:105A900010B51421044600F0F2F9204610BD0000B4
:105AA00010B54FF0000C0446084611464FF47A72C8
:105AB000C4E901C2044A22600122207462741A46B9
:105AC000FEF7DAFF204610BD30690D0013B50E4C0D
:105AD0002178BFF35B8F11F0010112D120460191B3
:105AE000FEF7DFFA019960B1084A094B0948FFF750
:105AF000D7FF2046FEF7DAFA074A0849054800F0C2
:105B0000B9F9044802B010BD88E603208CE60320F2
:105B100010E7032094E70320D4E50320255A0D0065
:105B200041747047704708B50021007CFFF704F806
:105B300040EAE07008BD08B50121007CFEF7FCFFDB
:105B400040EAE07008BD08B5007CFEF7EDFF20EAF2
:105B5000E07008BD08B5007CFEF7DEFF20EAE070CB
:105B600008BD13B50446007C0191FEF7DDFF002857
:105B7000019901DC607C20B1207CFEF7E5FF20EA82
:105B8000E07002B010BD007CFEF7E6BF10B5142136
:105B9000044600F074F9204610BD000010B54FF423
:105BA0007A73044608460021C4E90113044B2360BC
:105BB0000123207463741146FEF79EFF204610BD3A
:105BC00060690D00007C0022FEF79EBF10B5142214
:105BD0000446002100F094FD204610BD10B5104C85
:105BE00088B003A8FFF7F2FF2178BFF35B8F11F0B5
:105BF000010111D120460191FEF753FA019958B1E4
:105C000003AA0848FFF7CAFF2046FEF74FFA064AE4
:105C10000649044800F02EF9024808B010BD00BF44
:105C2000A8E70320ACE70320D4E50320255B0D00A3
:105C3000014B1860704700BF70E5032008B50B4B9F
:105C400043B1FFF7CBFF03681B699847002801DDCC
:105C5000AFF30080064B43B1FFF738FF03681B69C1
:105C60009847002801DDAFF3008008BD0000000068
:105C70000000000008B5FFF7E1FFFEF765FE014BED
:105C8000186008BDD4E703200248034A0349121AEA
:105C900000F028BD00F4032004F40320B0690D00D7
:105CA00007B5002300931A466FF07701FEF78EFFC9
:105CB00003B05DF804FB000007B543880A2B08D049
:105CC000502B0BD1094B1B684BB103B05DF804EBB3
:105CD0001847FFF7E5FF03B05DF804FB00230093CE
:105CE0001A466FF07701FEF771FFF4E7C4E703206F
:105CF00038B5124C1248134D0021FFF719F82368EC
:105D0000AB42114B0CBF012200221A7002D0FFF7E8
:105D1000BBFF2560FEF708FE044600F0F9FC0B4BC4
:105D200013B12046AFF3008000210848FEF768FF5A
:105D3000BDE8384006480021FEF73EBF00F40320CE
:105D4000315C0D001E1C279AC0E7032000000000F4
:105D5000B95C0D00232813B502D9002002B010BD94
:105D6000A0F10B03022B1AD8174C2178BFF35B8FDD
:105D700011F001010BD120460191FEF792F9019932
:105D800028B11248FFF784FD2046FEF78FF90F4B2C
:105D90001878FEF769FE0028DFD10120DEE7012830
:105DA00009D800F03FF80021007CFEF72DFE80F0BE
:105DB0000100C0B2D2E709380128EED8FFF786FE0D
:105DC000007CFEF789FEF2E7C8E70320CCE703205A
:105DD000232838B504460D460AD8FF2908D0FFF716
:105DE000B9FF28B129462046BDE83840FEF7CCBDB2
:105DF00038BD000038B50023202543801423044615
:105E00000380856005610649284600F03AF8044998
:105E10006060284600F035F8E060204638BD00BFDD
:105E200088690D0030B50F4D2978BFF35B8F11F0F5
:105E3000010487B013D12846FEF733F978B101A8E1
:105E4000FFF7D8FF01AA21460748FFF73DFB284688
:105E5000FEF72CF9054A0649034800F00BF8024802
:105E600007B030BDD8E70320DCE70320D4E50320EA
:105E700071540D000B460146184600F025BCFEF794
:105E80000EB9FEF70AB908B5FEF742FF81F00041EE
:105E900002E000BF83F0004330B54FEA41044FEA0F
:105EA000430594EA050F08BF90EA020F1FBF54EAAA
:105EB000000C55EA020C7FEA645C7FEA655C00F046
:105EC000E2804FEA5454D4EB5555B8BF6D420CDD17
:105ED0002C4480EA020281EA030382EA000083EA9A
:105EE000010180EA020281EA0303362D88BF30BD3A
:105EF00011F0004F4FEA01314FF4801C4CEA113190
:105F000002D0404261EB410113F0004F4FEA0333EE
:105F10004CEA133302D0524263EB430394EA050F79
:105F200000F0A780A4F10104D5F1200E0DDB02FAE8
:105F30000EFC22FA05F2801841F1000103FA0EF27C
:105F4000801843FA05F359410EE0A5F120050EF142
:105F5000200E012A03FA0EFC28BF4CF0020C43FA73
:105F600005F3C01851EBE37101F0004507D54FF080
:105F7000000EDCF1000C7EEB00006EEB0101B1F5D0
:105F8000801F1BD3B1F5001F0CD349085FEA300016
:105F90004FEA3C0C04F101044FEA445212F5800F21
:105FA00080F09A80BCF1004F08BF5FEA500C50F1BE
:105FB000000041EB045141EA050130BD5FEA4C0CA1
:105FC000404141EB0101013C28BFB1F5801FE9D2FE
:105FD00091F0000F04BF01460020B1FA81F308BF21
:105FE0002033A3F10B03B3F120020CDA0C3208DDED
:105FF00002F1140CC2F10C0201FA0CF021FA02F1C8
:106000000CE002F11402D8BFC2F1200C01FA02F137
:1060100020FA0CFCDCBF41EA0C019040E41AA2BF5C
:1060200001EB0451294330BD6FEA04041F3C1CDA24
:106030000C340EDC04F11404C4F1200220FA04F044
:1060400001FA02F340EA030021FA04F345EA0301EE
:1060500030BDC4F10C04C4F1200220FA02F001FAB0
:1060600004F340EA0300294630BD21FA04F0294632
:1060700030BD94F0000F83F4801306BF81F48011CB
:106080000134013D4EE77FEA645C18BF7FEA655C3E
:1060900029D094EA050F08BF90EA020F05D054EA10
:1060A000000C04BF1946104630BD91EA030F1EBF15
:1060B0000021002030BD5FEA545C05D14000494119
:1060C00028BF41F0004130BD14F580043CBF01F50C
:1060D000801130BD01F0004545F0FE4141F47001F2
:1060E0004FF0000030BD7FEA645C1ABF19461046CD
:1060F0007FEA655C1CBF0B46024650EA013406BFCE
:1061000052EA033591EA030F41F4002130BD00BF8C
:1061100090F0000F04BF0021704730B54FF4806449
:1061200004F132044FF000054FF0000150E700BFCA
:1061300090F0000F04BF0021704730B54FF4806429
:1061400004F1320410F0004548BF40424FF0000116
:106150003EE700BF42004FEAE2014FEA31014FEA59
:1061600002701FBF12F07F4393F07F4F81F06051A8
:10617000704732F07F4208BF704793F07F4F04BFF3
:1061800041F40021704730B54FF4607401F00045D0
:1061900021F000411CE700BF50EA010208BF704730
:1061A00030B54FF000050AE050EA010208BF704721
:1061B00030B511F0004502D5404261EB41014FF48A
:1061C000806404F132045FEA915C3FF4D8AE4FF092
:1061D00003025FEADC0C18BF03325FEADC0C18BF75
:1061E000033202EBDC02C2F1200300FA03FC20FAC6
:1061F00002F001FA03FE40EA0E0021FA02F1144413
:10620000BDE600BF70B54FF0FF0C4CF4E06C1CEA2B
:1062100011541DBF1CEA135594EA0C0F95EA0C0F9C
:1062200000F0DEF82C4481EA030621EA4C5123EA0F
:106230004C5350EA013518BF52EA033541F480113E
:1062400043F4801338D0A0FB02CE4FF00005E1FBF1
:1062500002E506F00042E0FB03E54FF00006E1FB3B
:1062600003569CF0000F18BF4EF0010EA4F1FF047E
:10627000B6F5007F64F5407404D25FEA4E0E6D41BE
:1062800046EB060642EAC62141EA55514FEAC520CF
:1062900040EA5E504FEACE2EB4F1FD0C88BFBCF54B
:1062A000E06F1ED8BEF1004F08BF5FEA500E50F1FC
:1062B000000041EB045170BD06F0004646EA0101C2
:1062C00040EA020081EA0301B4EB5C04C2BFD4EBF4
:1062D0000C0541EA045170BD41F480114FF0000EED
:1062E000013C00F3AB8014F1360FDEBF002001F05B
:1062F000004170BDC4F10004203C35DA0C341BDCD5
:1063000004F11404C4F1200500FA05F320FA04F0A6
:1063100001FA05F240EA020001F0004221F00041DA
:1063200010EBD37021FA04F642EB06015EEA430E4D
:1063300008BF20EAD37070BDC4F10C04C4F120057D
:1063400000FA04F320FA05F001FA04F240EA020030
:1063500001F0004110EBD37041F100015EEA430E01
:1063600008BF20EAD37070BDC4F1200500FA05F221
:106370004EEA020E20FA04F301FA05F243EA0203A0
:1063800021FA04F001F0004121FA04F220EA0200AF
:1063900000EBD3705EEA430E08BF20EAD37070BDF5
:1063A00094F0000F0FD101F00046400041EB0101D5
:1063B00011F4801F08BF013CF7D041EA060195F0B7
:1063C000000F18BF704703F00046520043EB030371
:1063D00013F4801F08BF013DF7D043EA060370475E
:1063E00094EA0C0F0CEA135518BF95EA0C0F0CD069
:1063F00050EA410618BF52EA4306D1D181EA0301AF
:1064000001F000414FF0000070BD50EA410606BFA8
:106410001046194652EA430619D094EA0C0F02D1ED
:1064200050EA013613D195EA0C0F05D152EA033632
:106430001CBF104619460AD181EA030101F0004150
:1064400041F0FE4141F470014FF0000070BD41F099
:10645000FE4141F4780170BD70B54FF0FF0C4CF473
:10646000E06C1CEA11541DBF1CEA135594EA0C0F92
:1064700095EA0C0F00F0A7F8A4EB050481EA030EDF
:1064800052EA03354FEA013100F088804FEA0333C6
:106490004FF0805545EA131343EA12634FEA022294
:1064A00045EA111545EA10654FEA00260EF0004155
:1064B0009D4208BF964244F1FD0404F5407402D2A7
:1064C0005B084FEA3202B61A65EB03055B084FEA38
:1064D00032024FF480104FF4002CB6EB020E75EB35
:1064E000030E22BFB61A754640EA0C005B084FEA5D
:1064F0003202B6EB020E75EB030E22BFB61A7546DA
:1065000040EA5C005B084FEA3202B6EB020E75EB24
:10651000030E22BFB61A754640EA9C005B084FEA9C
:106520003202B6EB020E75EB030E22BFB61A7546A9
:1065300040EADC0055EA060E18D04FEA051545EA98
:1065400016754FEA06164FEAC30343EA52734FEA41
:10655000C2025FEA1C1CC0D111F4801F0BD141EABA
:1065600000014FF000004FF0004CB6E711F4801F1F
:1065700004BF01430020B4F1FD0C88BFBCF5E06FFF
:106580003FF6AFAEB5EB030C04BFB6EB020C5FEA0F
:10659000500C50F1000041EB045170BD0EF0004E64
:1065A0004EEA113114EB5C04C2BFD4EB0C0541EA96
:1065B000045170BD41F480114FF0000E013C90E693
:1065C00045EA060E8DE60CEA135594EA0C0F08BF57
:1065D00095EA0C0F3FF43BAF94EA0C0F0AD150EA56
:1065E00001347FF434AF95EA0C0F7FF425AF1046E9
:1065F00019462CE795EA0C0F06D152EA03353FF411
:10660000FDAE1046194622E750EA410618BF52EA8D
:1066100043067FF4C5AE50EA41047FF40DAF52EA61
:1066200043057FF4EBAE12E74FEA4102B2F1E043DB
:1066300024BFB3F5001CDCF1FE5C0DD901F0004C69
:106640004FEAC0024CEA5070B2F1004F40EB8300B9
:1066500008BF20F00100704711F0804F21D113F1E5
:106660003872BCBF01F00040704741F480114FEA1E
:106670005252C2F11802C2F1200C10FA0CF320FAA7
:1066800002F018BF40F001004FEAC1234FEAD323C4
:1066900003FA0CFC40EA0C0023FA02F34FEA43032E
:1066A000CCE77FEA625307D150EA01331EBF4FF0B7
:1066B000FE4040F44000704701F0004040F0FE40D2
:1066C00040F40000704700BF10B5054C13462CB1D4
:1066D0000A4601460220AFF3008010BD2046FCE7C9
:1066E000000000000A44914200F1FF3300D17047DE
:1066F00010B511F8014B03F8014F9142F9D110BDCB
:1067000002440346934200D1704703F8011BF9E7A6
:1067100038B50D4B1D68AB6B04467BB91820FEF7EE
:10672000D7FA0A4A0A4BA863C0E90023094B8360E1
:106730000B23838101220023C0E90423AB6B0022D9
:106740001C615A6138BD00BF70E503200E33CDAB2C
:1067500034126DE6ECDE0500024B0146186800F0CD
:1067600003B800BF70E5032037B5044608460D4660
:1067700000F00FF8421C114620460192FEF7D0FAB5
:10678000044618B1019A2946FFF7ACFF204603B032
:1067900030BD034613F8012B002AFBD1181A01382B
:1067A0007047000021400D005D400D0085400D0048
:1067B00089400D00000000007B226D6F69737475C5
:1067C0007265223A25662C2274656D70657261745B
:1067D000757265223A25662C226D657468616E6556
:1067E000223A25667D00757064617465426F647934
:1067F000007075626C697368696E67000000000064
:1068000000000000834E0D00794E0D006F4E0D000C
:10681000254E0D00634E0D00574E0D0031560D00F4
:1068200039560D004B4E0D00434E0D00394E0D00F4
:106830002F4E0D0069560D00000000000000000002
:10684000BD4E0D00C34E0D00014F0D00D14E0D0089
:10685000BF4E0D00000000000000000053540D006A
:1068600049540D003F540D0035540D0029540D00BE
:106870001D540D0031560D0039560D0011540D00F8
:1068800009540D00FF530D00F5530D0069560D001E
:10689000000000000000000071540D00BB540D000A
:1068A00093540D0073540D009B540D00A3540D0020
:1068B000AB540D00B3540D000000000000000000B8
:1068C00005550D00F5540D00F7540D006170700072
:1068D0000000000000000000F1550D00FB550D0008
:1068E00005560D000F560D0019560D0025560D00CA
:1068F00031560D0039560D0041560D004D560D0014
:1069000055560D005F560D0069560D0025592D2571
:106910006D2D25645425483A254D3A2553257A0096
:1069200061736374696D6500000000000000000081
:10693000255A0D00915A0D00695A0D005D570D0042
:10694000395A0D00555A0D00475A0D00635A0D0073
:10695000275A0D002B5A0D00000000000000000017
:10696000255B0D008D5B0D00635B0D005D570D0019
:10697000555B0D00275B0D00375B0D00875B0D003D
:10698000475B0D00215B0D0000000000C5410D00BC
:10699000FD4D0D008D4E0D005D540D00E1550D00B7
:1069A00049570D0075580D00D5590D00115A0D00AD
:0469B00000000000E3
:1069B4008813000020690D0074E503200000000026
:1069C40000000000000000000000000000000000C3
:1069D40000000000000000000000000000000000B3
:1069E40000000000000000000000000000000000A3
:1069F4000000000000000000000000000000000093
:106A04000000000000000000000000000000000082
:0C6A140000000000000000000000000076
:106A2000FFFFFFFF00000102030405060708090A33
:106A30000B0C0D0E0F101112131415161718191A2E
:086A40001B1C1D1E1F20280075
:046A48007856341236
:04000003D0004020C9
:00000001FF
